{
  "contractName": "TXTCrowdsale",
  "abi": [
    {
      "constant": true,
      "inputs": [],
      "name": "rate",
      "outputs": [
        {
          "name": "",
          "type": "uint256"
        }
      ],
      "payable": false,
      "stateMutability": "view",
      "type": "function"
    },
    {
      "constant": true,
      "inputs": [],
      "name": "weiRaised",
      "outputs": [
        {
          "name": "",
          "type": "uint256"
        }
      ],
      "payable": false,
      "stateMutability": "view",
      "type": "function"
    },
    {
      "constant": true,
      "inputs": [],
      "name": "wallet",
      "outputs": [
        {
          "name": "",
          "type": "address"
        }
      ],
      "payable": false,
      "stateMutability": "view",
      "type": "function"
    },
    {
      "constant": false,
      "inputs": [],
      "name": "renounceOwnership",
      "outputs": [],
      "payable": false,
      "stateMutability": "nonpayable",
      "type": "function"
    },
    {
      "constant": true,
      "inputs": [],
      "name": "owner",
      "outputs": [
        {
          "name": "",
          "type": "address"
        }
      ],
      "payable": false,
      "stateMutability": "view",
      "type": "function"
    },
    {
      "constant": false,
      "inputs": [
        {
          "name": "_newOwner",
          "type": "address"
        }
      ],
      "name": "transferOwnership",
      "outputs": [],
      "payable": false,
      "stateMutability": "nonpayable",
      "type": "function"
    },
    {
      "constant": true,
      "inputs": [],
      "name": "token",
      "outputs": [
        {
          "name": "",
          "type": "address"
        }
      ],
      "payable": false,
      "stateMutability": "view",
      "type": "function"
    },
    {
      "inputs": [
        {
          "name": "_price",
          "type": "uint256"
        },
        {
          "name": "_wallet",
          "type": "address"
        },
        {
          "name": "_token",
          "type": "address"
        }
      ],
      "payable": false,
      "stateMutability": "nonpayable",
      "type": "constructor"
    },
    {
      "payable": true,
      "stateMutability": "payable",
      "type": "fallback"
    },
    {
      "anonymous": false,
      "inputs": [
        {
          "indexed": true,
          "name": "previousOwner",
          "type": "address"
        }
      ],
      "name": "OwnershipRenounced",
      "type": "event"
    },
    {
      "anonymous": false,
      "inputs": [
        {
          "indexed": true,
          "name": "previousOwner",
          "type": "address"
        },
        {
          "indexed": true,
          "name": "newOwner",
          "type": "address"
        }
      ],
      "name": "OwnershipTransferred",
      "type": "event"
    },
    {
      "anonymous": false,
      "inputs": [
        {
          "indexed": true,
          "name": "purchaser",
          "type": "address"
        },
        {
          "indexed": true,
          "name": "beneficiary",
          "type": "address"
        },
        {
          "indexed": false,
          "name": "value",
          "type": "uint256"
        },
        {
          "indexed": false,
          "name": "amount",
          "type": "uint256"
        }
      ],
      "name": "TokenPurchase",
      "type": "event"
    },
    {
      "constant": false,
      "inputs": [],
      "name": "Pause",
      "outputs": [],
      "payable": false,
      "stateMutability": "nonpayable",
      "type": "function"
    },
    {
      "constant": false,
      "inputs": [],
      "name": "UnPause",
      "outputs": [],
      "payable": false,
      "stateMutability": "nonpayable",
      "type": "function"
    },
    {
      "constant": false,
      "inputs": [],
      "name": "bonusPeriod",
      "outputs": [
        {
          "name": "",
          "type": "uint8"
        }
      ],
      "payable": false,
      "stateMutability": "nonpayable",
      "type": "function"
    },
    {
      "constant": false,
      "inputs": [
        {
          "name": "_beneficiary",
          "type": "address"
        }
      ],
      "name": "buyTokens",
      "outputs": [],
      "payable": true,
      "stateMutability": "payable",
      "type": "function"
    }
  ],
  "bytecode": "0x60806040526000600460146101000a81548160ff021916908315150217905550600060055560a060405190810160405280600060ff168152602001606460ff168152602001603260ff168152602001601960ff168152602001600060ff1681525060069060056200007292919062000286565b5060a060405190810160405280428152602001603c4201815260200160784201815260200160b44201815260200160f042018152506008906005620000b992919062000334565b50348015620000c757600080fd5b50604051606080620013f58339810180604052810190808051906020019092919080519060200190929190805190602001909291905050508282826000831115156200011257600080fd5b600073ffffffffffffffffffffffffffffffffffffffff168273ffffffffffffffffffffffffffffffffffffffff16141515156200014f57600080fd5b600073ffffffffffffffffffffffffffffffffffffffff168173ffffffffffffffffffffffffffffffffffffffff16141515156200018c57600080fd5b8260028190555081600160006101000a81548173ffffffffffffffffffffffffffffffffffffffff021916908373ffffffffffffffffffffffffffffffffffffffff160217905550806000806101000a81548173ffffffffffffffffffffffffffffffffffffffff021916908373ffffffffffffffffffffffffffffffffffffffff16021790555050505033600460006101000a81548173ffffffffffffffffffffffffffffffffffffffff021916908373ffffffffffffffffffffffffffffffffffffffff1602179055506000600760006101000a81548160ff021916908360038111156200027857fe5b0217905550505050620003e1565b82805482825590600052602060002090601f01602090048101928215620003215791602002820160005b83821115620002f057835183826101000a81548160ff021916908360ff1602179055509260200192600101602081600001049283019260010302620002b0565b80156200031f5782816101000a81549060ff0219169055600101602081600001049283019260010302620002f0565b505b50905062000330919062000386565b5090565b82805482825590600052602060002090810192821562000373579160200282015b828111156200037257825182559160200191906001019062000355565b5b509050620003829190620003b9565b5090565b620003b691905b80821115620003b257600081816101000a81549060ff0219169055506001016200038d565b5090565b90565b620003de91905b80821115620003da576000816000905550600101620003c0565b5090565b90565b61100480620003f16000396000f3006080604052600436106100af576000357c0100000000000000000000000000000000000000000000000000000000900463ffffffff1680632c4e722e146100ba5780634042b66f146100e5578063438cd2d3146101105780634af4a12714610127578063521eb273146101585780636985a022146101af578063715018a6146101c65780638da5cb5b146101dd578063ec8ac4d814610234578063f2fde38b1461026a578063fc0c546a146102ad575b6100b833610304565b005b3480156100c657600080fd5b506100cf610544565b6040518082815260200191505060405180910390f35b3480156100f157600080fd5b506100fa61054a565b6040518082815260200191505060405180910390f35b34801561011c57600080fd5b50610125610550565b005b34801561013357600080fd5b5061013c6105c9565b604051808260ff1660ff16815260200191505060405180910390f35b34801561016457600080fd5b5061016d610774565b604051808273ffffffffffffffffffffffffffffffffffffffff1673ffffffffffffffffffffffffffffffffffffffff16815260200191505060405180910390f35b3480156101bb57600080fd5b506101c461079a565b005b3480156101d257600080fd5b506101db610813565b005b3480156101e957600080fd5b506101f2610918565b604051808273ffffffffffffffffffffffffffffffffffffffff1673ffffffffffffffffffffffffffffffffffffffff16815260200191505060405180910390f35b610268600480360381019080803573ffffffffffffffffffffffffffffffffffffffff169060200190929190505050610304565b005b34801561027657600080fd5b506102ab600480360381019080803573ffffffffffffffffffffffffffffffffffffffff16906020019092919050505061093e565b005b3480156102b957600080fd5b506102c26109a6565b604051808273ffffffffffffffffffffffffffffffffffffffff1673ffffffffffffffffffffffffffffffffffffffff16815260200191505060405180910390f35b6000806000801515600460149054906101000a900460ff16151514151561032a57600080fd5b60038081111561033657fe5b600760009054906101000a900460ff16600381111561035157fe5b1415151561035e57600080fd5b6002600381111561036b57fe5b600760009054906101000a900460ff16600381111561038657fe5b14156103dd573373ffffffffffffffffffffffffffffffffffffffff166108fc349081150290604051600060405180830381858888f193505050501580156103d2573d6000803e3d6000fd5b506103db6109cb565b505b67016345785d8a0000341115156103f357600080fd5b3492506104008484610c45565b61040983610c95565b915060066104156105c9565b60ff1681548110151561042457fe5b90600052602060002090602091828204019190069054906101000a900460ff16905060008160ff1611156104905761048d61047e60646104708460ff1686610cb390919063ffffffff16565b610ceb90919063ffffffff16565b83610d0190919063ffffffff16565b91505b6104a583600354610d0190919063ffffffff16565b6003819055506104b58483610d1d565b8373ffffffffffffffffffffffffffffffffffffffff163373ffffffffffffffffffffffffffffffffffffffff167f623b3804fa71d67900d064613da8f94b9617215ee90799290593e1745087ad188585604051808381526020018281526020019250505060405180910390a361052c8484610d2b565b610534610d2f565b61053e8484610d9a565b50505050565b60025481565b60035481565b600460009054906101000a900473ffffffffffffffffffffffffffffffffffffffff1673ffffffffffffffffffffffffffffffffffffffff163373ffffffffffffffffffffffffffffffffffffffff161415156105ac57600080fd5b6000600460146101000a81548160ff021916908315150217905550565b60006003808111156105d757fe5b600760009054906101000a900460ff1660038111156105f257fe5b14156106015760059050610771565b6008600481548110151561061157fe5b9060005260206000200154421115610650576002600760006101000a81548160ff0219169083600381111561064257fe5b021790555060059050610771565b6001600760006101000a81548160ff0219169083600381111561066f57fe5b02179055506008600381548110151561068457fe5b906000526020600020015442111561069f5760049050610771565b600860028154811015156106af57fe5b90600052602060002001544211156106ca5760039050610771565b600860018154811015156106da57fe5b90600052602060002001544211156106f55760029050610771565b6008600081548110151561070557fe5b90600052602060002001544211156107205760019050610771565b6008600081548110151561073057fe5b906000526020600020015442111515610770576000600760006101000a81548160ff0219169083600381111561076257fe5b021790555060009050610771565b5b90565b600160009054906101000a900473ffffffffffffffffffffffffffffffffffffffff1681565b600460009054906101000a900473ffffffffffffffffffffffffffffffffffffffff1673ffffffffffffffffffffffffffffffffffffffff163373ffffffffffffffffffffffffffffffffffffffff161415156107f657600080fd5b6001600460146101000a81548160ff021916908315150217905550565b600460009054906101000a900473ffffffffffffffffffffffffffffffffffffffff1673ffffffffffffffffffffffffffffffffffffffff163373ffffffffffffffffffffffffffffffffffffffff1614151561086f57600080fd5b600460009054906101000a900473ffffffffffffffffffffffffffffffffffffffff1673ffffffffffffffffffffffffffffffffffffffff167ff8df31144d9c2f0f6b59d69b8b98abd5459d07f2742c4df920b25aae33c6482060405160405180910390a26000600460006101000a81548173ffffffffffffffffffffffffffffffffffffffff021916908373ffffffffffffffffffffffffffffffffffffffff160217905550565b600460009054906101000a900473ffffffffffffffffffffffffffffffffffffffff1681565b600460009054906101000a900473ffffffffffffffffffffffffffffffffffffffff1673ffffffffffffffffffffffffffffffffffffffff163373ffffffffffffffffffffffffffffffffffffffff1614151561099a57600080fd5b6109a381610d9e565b50565b6000809054906101000a900473ffffffffffffffffffffffffffffffffffffffff1681565b600080600260038111156109db57fe5b600760009054906101000a900460ff1660038111156109f657fe5b141515610a0257600080fd5b6000809054906101000a900473ffffffffffffffffffffffffffffffffffffffff1673ffffffffffffffffffffffffffffffffffffffff166370a08231306040518263ffffffff167c0100000000000000000000000000000000000000000000000000000000028152600401808273ffffffffffffffffffffffffffffffffffffffff1673ffffffffffffffffffffffffffffffffffffffff168152602001915050602060405180830381600087803b158015610abe57600080fd5b505af1158015610ad2573d6000803e3d6000fd5b505050506040513d6020811015610ae857600080fd5b810190808051906020019092919050505090506000809054906101000a900473ffffffffffffffffffffffffffffffffffffffff1673ffffffffffffffffffffffffffffffffffffffff1663a9059cbb600160009054906101000a900473ffffffffffffffffffffffffffffffffffffffff16836040518363ffffffff167c0100000000000000000000000000000000000000000000000000000000028152600401808373ffffffffffffffffffffffffffffffffffffffff1673ffffffffffffffffffffffffffffffffffffffff16815260200182815260200192505050602060405180830381600087803b158015610be157600080fd5b505af1158015610bf5573d6000803e3d6000fd5b505050506040513d6020811015610c0b57600080fd5b8101908080519060200190929190505050506003600760006101000a81548160ff02191690836003811115610c3c57fe5b02179055505090565b600073ffffffffffffffffffffffffffffffffffffffff168273ffffffffffffffffffffffffffffffffffffffff1614151515610c8157600080fd5b60008114151515610c9157600080fd5b5050565b6000610cac60025483610cb390919063ffffffff16565b9050919050565b600080831415610cc65760009050610ce5565b8183029050818382811515610cd757fe5b04141515610ce157fe5b8090505b92915050565b60008183811515610cf857fe5b04905092915050565b60008183019050828110151515610d1457fe5b80905092915050565b610d278282610e9a565b5050565b5050565b600160009054906101000a900473ffffffffffffffffffffffffffffffffffffffff1673ffffffffffffffffffffffffffffffffffffffff166108fc349081150290604051600060405180830381858888f19350505050158015610d97573d6000803e3d6000fd5b50565b5050565b600073ffffffffffffffffffffffffffffffffffffffff168173ffffffffffffffffffffffffffffffffffffffff1614151515610dda57600080fd5b8073ffffffffffffffffffffffffffffffffffffffff16600460009054906101000a900473ffffffffffffffffffffffffffffffffffffffff1673ffffffffffffffffffffffffffffffffffffffff167f8be0079c531659141344cd1fd0a4f28419497f9722a3daafe3b4186f6b6457e060405160405180910390a380600460006101000a81548173ffffffffffffffffffffffffffffffffffffffff021916908373ffffffffffffffffffffffffffffffffffffffff16021790555050565b610ee682826000809054906101000a900473ffffffffffffffffffffffffffffffffffffffff1673ffffffffffffffffffffffffffffffffffffffff16610eea9092919063ffffffff16565b5050565b8273ffffffffffffffffffffffffffffffffffffffff1663a9059cbb83836040518363ffffffff167c0100000000000000000000000000000000000000000000000000000000028152600401808373ffffffffffffffffffffffffffffffffffffffff1673ffffffffffffffffffffffffffffffffffffffff16815260200182815260200192505050602060405180830381600087803b158015610f8d57600080fd5b505af1158015610fa1573d6000803e3d6000fd5b505050506040513d6020811015610fb757600080fd5b81019080805190602001909291905050501515610fd357600080fd5b5050505600a165627a7a723058200eecb271ae2d33a56c282bd420c2743c71129c64fa1918c92423920dfc131e3d0029",
  "source": "pragma solidity ^0.4.24;\n\n// File: contracts\\ERC20Basic.sol\n\n/**\n * @title ERC20Basic\n * @dev Simpler version of ERC20 interface\n * See https://github.com/ethereum/EIPs/issues/179\n */\ncontract ERC20Basic {\n  function totalSupply() public view returns (uint256);\n  function balanceOf(address _who) public view returns (uint256);\n  function transfer(address _to, uint256 _value) public returns (bool);\n  event Transfer(address indexed from, address indexed to, uint256 value);\n}\n\n// File: contracts\\ERC20.sol\n\n/**\n * @title ERC20 interface\n * @dev see https://github.com/ethereum/EIPs/issues/20\n */\ncontract ERC20 is ERC20Basic {\n  function allowance(address _owner, address _spender)\n    public view returns (uint256);\n\n  function transferFrom(address _from, address _to, uint256 _value)\n    public returns (bool);\n\n  function approve(address _spender, uint256 _value) public returns (bool);\n  event Approval(\n    address indexed owner,\n    address indexed spender,\n    uint256 value\n  );\n}\n\n// File: contracts\\SafeERC20.sol\n\n/**\n * @title SafeERC20\n * @dev Wrappers around ERC20 operations that throw on failure.\n * To use this library you can add a `using SafeERC20 for ERC20;` statement to your contract,\n * which allows you to call the safe operations as `token.safeTransfer(...)`, etc.\n */\nlibrary SafeERC20 {\n  function safeTransfer(\n    ERC20Basic _token,\n    address _to,\n    uint256 _value\n  )\n    internal\n  {\n    require(_token.transfer(_to, _value));\n  }\n\n  function safeTransferFrom(\n    ERC20 _token,\n    address _from,\n    address _to,\n    uint256 _value\n  )\n    internal\n  {\n    require(_token.transferFrom(_from, _to, _value));\n  }\n\n  function safeApprove(\n    ERC20 _token,\n    address _spender,\n    uint256 _value\n  )\n    internal\n  {\n    require(_token.approve(_spender, _value));\n  }\n}\n\n// File: contracts\\SafeMath.sol\n\n/**\n * @title SafeMath\n * @dev Math operations with safety checks that throw on error\n */\nlibrary SafeMath {\n\n  /**\n  * @dev Multiplies two numbers, throws on overflow.\n  */\n  function mul(uint256 _a, uint256 _b) internal pure returns (uint256 c) {\n    // Gas optimization: this is cheaper than asserting 'a' not being zero, but the\n    // benefit is lost if 'b' is also tested.\n    // See: https://github.com/OpenZeppelin/openzeppelin-solidity/pull/522\n    if (_a == 0) {\n      return 0;\n    }\n\n    c = _a * _b;\n    assert(c / _a == _b);\n    return c;\n  }\n\n  /**\n  * @dev Integer division of two numbers, truncating the quotient.\n  */\n  function div(uint256 _a, uint256 _b) internal pure returns (uint256) {\n    // assert(_b > 0); // Solidity automatically throws when dividing by 0\n    // uint256 c = _a / _b;\n    // assert(_a == _b * c + _a % _b); // There is no case in which this doesn't hold\n    return _a / _b;\n  }\n\n  /**\n  * @dev Subtracts two numbers, throws on overflow (i.e. if subtrahend is greater than minuend).\n  */\n  function sub(uint256 _a, uint256 _b) internal pure returns (uint256) {\n    assert(_b <= _a);\n    return _a - _b;\n  }\n\n  /**\n  * @dev Adds two numbers, throws on overflow.\n  */\n  function add(uint256 _a, uint256 _b) internal pure returns (uint256 c) {\n    c = _a + _b;\n    assert(c >= _a);\n    return c;\n  }\n}\n\n// File: contracts\\Crowdsale.sol\n\n/**\n * @title Crowdsale\n * @dev Crowdsale is a base contract for managing a token crowdsale,\n * allowing investors to purchase tokens with ether. This contract implements\n * such functionality in its most fundamental form and can be extended to provide additional\n * functionality and/or custom behavior.\n * The external interface represents the basic interface for purchasing tokens, and conform\n * the base architecture for crowdsales. They are *not* intended to be modified / overridden.\n * The internal interface conforms the extensible and modifiable surface of crowdsales. Override\n * the methods to add functionality. Consider using 'super' where appropriate to concatenate\n * behavior.\n */\ncontract Crowdsale {\n  using SafeMath for uint256;\n  using SafeERC20 for ERC20;\n\n  // The token being sold\n  ERC20 public token;\n\n  // Address where funds are collected\n  address public wallet;\n\n  // How many token units a buyer gets per wei.\n  // The rate is the conversion between wei and the smallest and indivisible token unit.\n  // So, if you are using a rate of 1 with a DetailedERC20 token with 3 decimals called TOK\n  // 1 wei will give you 1 unit, or 0.001 TOK.\n  uint256 public rate;\n\n  // Amount of wei raised\n  uint256 public weiRaised;\n\n  /**\n   * Event for token purchase logging\n   * @param purchaser who paid for the tokens\n   * @param beneficiary who got the tokens\n   * @param value weis paid for purchase\n   * @param amount amount of tokens purchased\n   */\n  event TokenPurchase(\n    address indexed purchaser,\n    address indexed beneficiary,\n    uint256 value,\n    uint256 amount\n  );\n\n  /**\n   * @param _rate Number of token units a buyer gets per wei\n   * @param _wallet Address where collected funds will be forwarded to\n   * @param _token Address of the token being sold\n   */\n  constructor(uint256 _rate, address _wallet, ERC20 _token) public {\n    require(_rate > 0);\n    require(_wallet != address(0));\n    require(_token != address(0));\n\n    rate = _rate;\n    wallet = _wallet;\n    token = _token;\n  }\n\n\n  // -----------------------------------------\n  // Internal interface (extensible)\n  // -----------------------------------------\n\n  /**\n   * @dev Validation of an incoming purchase. Use require statements to revert state when conditions are not met. Use `super` in contracts that inherit from Crowdsale to extend their validations.\n   * Example from CappedCrowdsale.sol's _preValidatePurchase method:\n   *   super._preValidatePurchase(_beneficiary, _weiAmount);\n   *   require(weiRaised.add(_weiAmount) <= cap);\n   * @param _beneficiary Address performing the token purchase\n   * @param _weiAmount Value in wei involved in the purchase\n   */\n  function _preValidatePurchase(\n    address _beneficiary,\n    uint256 _weiAmount\n  )\n    internal\n  {\n    require(_beneficiary != address(0));\n    require(_weiAmount != 0);\n  }\n\n  /**\n   * @dev Validation of an executed purchase. Observe state and use revert statements to undo rollback when valid conditions are not met.\n   * @param _beneficiary Address performing the token purchase\n   * @param _weiAmount Value in wei involved in the purchase\n   */\n  function _postValidatePurchase(\n    address _beneficiary,\n    uint256 _weiAmount\n  )\n    internal\n  {\n    // optional override\n  }\n\n  /**\n   * @dev Source of tokens. Override this method to modify the way in which the crowdsale ultimately gets and sends its tokens.\n   * @param _beneficiary Address performing the token purchase\n   * @param _tokenAmount Number of tokens to be emitted\n   */\n  function _deliverTokens(\n    address _beneficiary,\n    uint256 _tokenAmount\n  )\n    internal\n  {\n    token.safeTransfer(_beneficiary, _tokenAmount);\n  }\n\n  /**\n   * @dev Executed when a purchase has been validated and is ready to be executed. Not necessarily emits/sends tokens.\n   * @param _beneficiary Address receiving the tokens\n   * @param _tokenAmount Number of tokens to be purchased\n   */\n  function _processPurchase(\n    address _beneficiary,\n    uint256 _tokenAmount\n  )\n    internal\n  {\n    _deliverTokens(_beneficiary, _tokenAmount);\n  }\n\n  /**\n   * @dev Override for extensions that require an internal state to check for validity (current user contributions, etc.)\n   * @param _beneficiary Address receiving the tokens\n   * @param _weiAmount Value in wei involved in the purchase\n   */\n  function _updatePurchasingState(\n    address _beneficiary,\n    uint256 _weiAmount\n  )\n    internal\n  {\n    // optional override\n  }\n\n  /**\n   * @dev Override to extend the way in which ether is converted to tokens.\n   * @param _weiAmount Value in wei to be converted into tokens\n   * @return Number of tokens that can be purchased with the specified _weiAmount\n   */\n  function _getTokenAmount(uint256 _weiAmount)\n    internal view returns (uint256)\n  {\n    return _weiAmount.mul(rate);\n  }\n\n  /**\n   * @dev Determines how ETH is stored/forwarded on purchases.\n   */\n  function _forwardFunds() internal {\n    wallet.transfer(msg.value);\n  }\n}\n\n// File: contracts\\Ownable.sol\n\n/**\n * @title Ownable\n * @dev The Ownable contract has an owner address, and provides basic authorization control\n * functions, this simplifies the implementation of \"user permissions\".\n */\ncontract Ownable {\n  address public owner;\n\n\n  event OwnershipRenounced(address indexed previousOwner);\n  event OwnershipTransferred(\n    address indexed previousOwner,\n    address indexed newOwner\n  );\n\n\n  /**\n   * @dev The Ownable constructor sets the original `owner` of the contract to the sender\n   * account.\n   */\n  constructor() public {\n    owner = msg.sender;\n  }\n\n  /**\n   * @dev Throws if called by any account other than the owner.\n   */\n  modifier onlyOwner() {\n    require(msg.sender == owner);\n    _;\n  }\n\n  /**\n   * @dev Allows the current owner to relinquish control of the contract.\n   * @notice Renouncing to ownership will leave the contract without an owner.\n   * It will not be possible to call the functions with the `onlyOwner`\n   * modifier anymore.\n   */\n  function renounceOwnership() public onlyOwner {\n    emit OwnershipRenounced(owner);\n    owner = address(0);\n  }\n\n  /**\n   * @dev Allows the current owner to transfer control of the contract to a newOwner.\n   * @param _newOwner The address to transfer ownership to.\n   */\n  function transferOwnership(address _newOwner) public onlyOwner {\n    _transferOwnership(_newOwner);\n  }\n\n  /**\n   * @dev Transfers control of the contract to a newOwner.\n   * @param _newOwner The address to transfer ownership to.\n   */\n  function _transferOwnership(address _newOwner) internal {\n    require(_newOwner != address(0));\n    emit OwnershipTransferred(owner, _newOwner);\n    owner = _newOwner;\n  }\n}\n\n// File: contracts\\TXTCrowdsale.sol\n\ncontract TXTCrowdsale is Crowdsale,Ownable{\r\n\r\n  bool paused = false;\r\n  uint phase = 0;\r\n  enum State {New,Started,Finished,Closed}\r\n  uint8 [] bonuses = [0,100,50,25,0];\r\n  State state;\r\n/*\r\n  uint256[] bonusPeriodsStart = [\r\n  1536105600, //September 5 2018\r\n  1542672000, //November 20 2018\r\n  1543622400, //December 01 2018\r\n  1544400000, //December 10 2018\r\n  1545264000  //December 20 2018\r\n  ];\r\n */\r\n\r\n uint256[] bonusPeriodsStart = [\r\n    now,\r\n    now+60,\r\n    now+120,\r\n    now+180,\r\n    now+240\r\n  ];\r\n\r\n  modifier notPaused () {\r\n    require(paused == false);\r\n    _;\r\n  }\r\n\r\n  function Pause()  onlyOwner public {\r\n    paused = true;\r\n  }\r\n\r\n  function UnPause() public onlyOwner {\r\n    paused = false;\r\n  }\r\n\r\n  function bonusPeriod() public returns (uint8)\r\n  {\r\n    if (state == State.Closed ) return 5;\r\n    if (now > bonusPeriodsStart[4]) {\r\n      state = State.Finished;\r\n      return 5;\r\n    }\r\n    state = State.Started;\r\n    if (now > bonusPeriodsStart[3]) return 4;\r\n    if (now > bonusPeriodsStart[2]) return 3;\r\n    if (now > bonusPeriodsStart[1]) return 2;\r\n    if (now > bonusPeriodsStart[0]) return 1;\r\n    if (now <= bonusPeriodsStart[0]) {\r\n      state = State.New;\r\n      return 0;\r\n    }\r\n  }\r\n\r\n  function _transferRemainingTokens() internal returns (bool)\r\n  {\r\n      require(state == State.Finished);\r\n      uint256 tokens = token.balanceOf(this);\r\n      token.transfer(wallet,tokens);\r\n      state = State.Closed;\r\n  }\r\n\r\n\r\n  constructor (uint _price, address _wallet, ERC20 _token) public Crowdsale(_price,_wallet,_token)\r\n  {\r\n    state = State.New;\r\n  }\r\n\r\n  // -----------------------------------------\r\n  // Crowdsale external interface\r\n  // -----------------------------------------\r\n\r\n  /**\r\n   * @dev fallback function ***DO NOT OVERRIDE***\r\n   */\r\n  function () external payable {\r\n\r\n    buyTokens(msg.sender);\r\n  }\r\n\r\n  /**\r\n   * @dev low level token purchase ***DO NOT OVERRIDE***\r\n   * @param _beneficiary Address performing the token purchase\r\n   */\r\n  function buyTokens(address _beneficiary) public notPaused payable {\r\n    require(state != State.Closed);\r\n\r\n    if(state == State.Finished) {\r\n      msg.sender.transfer(msg.value);\r\n      _transferRemainingTokens();\r\n    }\r\n    require (msg.value > 0.1 ether);\r\n    uint256 weiAmount = msg.value;\r\n    _preValidatePurchase(_beneficiary, weiAmount);\r\n\r\n    // calculate token amount to be created\r\n    uint256 tokens = _getTokenAmount(weiAmount);\r\n    uint8 bonus = bonuses[bonusPeriod()];\r\n    if (bonus > 0)\r\n    {\r\n      tokens = tokens.add(tokens.mul(bonus).div(100)); // Calculate bonus and add it to number of tokens user should get in this transaction.\r\n    }\r\n    // update state\r\n    weiRaised = weiRaised.add(weiAmount);\r\n\r\n    _processPurchase(_beneficiary, tokens);\r\n    emit TokenPurchase(\r\n      msg.sender,\r\n      _beneficiary,\r\n      weiAmount,\r\n      tokens\r\n    );\r\n\r\n    _updatePurchasingState(_beneficiary, weiAmount);\r\n\r\n    _forwardFunds();\r\n    _postValidatePurchase(_beneficiary, weiAmount);\r\n  }\r\n\r\n\r\n}\n",
  "sourcePath": "C:\\projects\\TuneTrade\\tokencontract\\contracts\\flatsale.sol",
  "compiler": {
    "name": "solc",
    "version": "0.4.24+commit.e67f0147.Emscripten.clang"
  },
  "schemaVersion": "2.0.1",
  "updatedAt": "2018-08-24T20:11:42.835Z"
}